:02000004080AE8
:1000000000000A08341C0A0800000600060005016A
:0800100004027E05000000005F
:0400180064180A0856
:10001C0009480A4908B5884205D0094A824202D0EB
:10002C00121A01F0CBFB0748074A0021121A01F003
:10003C00D0FB064808BD00BF00000020A41B0A0826
:10004C006800002068000020180600201806002018
:10005C0070B501F081F9074B074C1E46E41AA40851
:10006C000025A54204D056F8253098470135F8E70D
:10007C0070BD00BF5C1B0A08A01B0A0800F0C6BAC2
:10008C0008B500F0EFFABDE8084001F027B900F020
:10009C0099BC0078B0FA80F04009704701230370D6
:1000AC00704738B5044603739DF8103095B243730E
:1000BC009DF81430C272837381722846012101F0BD
:1000CC009BF92846012101F0A8F9A07B012101F040
:1000DC0093F9207B012101F08FF9607B002101F065
:1000EC008BF9A07A012101F087F9A07A002101F0A7
:1000FC0094F9204638BD0000F8B50E4604460021A0
:10010C00807A154601F089F92D4B71001B6801F0BE
:10011C007E0107261C2241FA06F010F0010F207B0D
:10012C0002FB00F003EB0007BF88185814BF0783CD
:10013C004783A07B16F1FF3602FB00F003EB0007B0
:10014C00BF8818580783607B02FB00F018580069C1
:10015C00A07B02FB00F003EB0007BF881858478315
:10016C00D9D207221C2045FA02F111F0010F217B94
:10017C0000FB01F103EB0106B688595814BF0E833E
:10018C004E83A17B12F1FF3200FB01F103EB010660
:10019C00B68859580E83617B00FB01F159580969E7
:1001AC00A17B00FB01F103EB0106B68859584E8385
:1001BC00D9D2A07A0121BDE8F84001F02EB900BFD8
:1001CC006C0000200F220121FFF796BFF8B50D46F9
:1001DC0004460021807A01F020F92D4B6D0005F0CA
:1001EC007E051B6845F0800507211C2045FA01F2AD
:1001FC0012F0010F227B00FB02F203EB0206B68821
:10020C009A5814BF16835683A27B11F1FF3100FB61
:10021C0002F203EB0206B6889A581683627B00FB47
:10022C0002F29A581269A27B00FB02F203EB02065F
:10023C00B6889A585683D9D21C2006460822002527
:10024C00217B6D0041435F18BF885958EDB24F8335
:10025C00A17B013A41435F18BF8859580F83617BDA
:10026C0041435F185958BF8809690F42A17B18BFD9
:10027C0045F0010571435F18BF88595812F0FF0211
:10028C004F83DDD1A07A012101F0C7F82846F8BDD3
:10029C006C00002070B505460E461446FFF796FF1D
:1002AC0040EA040231462846BDE87040D2B2FFF75E
:1002BC0023BF10B514210446FFF788FF830706D12E
:1002CC002046BDE8104003221421FFF7E3BF10BD08
:1002DC0010B504460121C07A01F09FF82046FFF7C3
:1002EC0071FF20468D222A21FFF706FF20463E2271
:1002FC002B21FFF701FF20461E222D21FFF7FCFECC
:10030C00204600222C21FFF7F7FE20464022152123
:10031C00FFF7F2FE20463D221121FFF7EDFE2046AD
:10032C00BDE81040FFF7C5BF70B505460E46144634
:10033C00FFF74CFF20EA040231462846BDE8704026
:10034C00D2B2FFF7D9BE2DE9F84F0C2904460F465F
:10035C0093469846DDF82C9005D00E2907D04FF027
:10036C00000A554606E04FF0300A772502E04FF0C0
:10037C00100A122545F0800202212046FFF7BCFE30
:10038C00802204212046FFF7CFFF80220A2120463D
:10039C00FFF780FF002201212046FFF7ADFE5E46ED
:1003AC001FFA88F8CBEB060292B2904506D916F8E4
:1003BC00012B09212046FFF79FFEF3E73A46012166
:1003CC002046FFF799FE0C2F04D180220D212046E8
:1003DC00FFF760FF4FF4FA664AF0010B0421204648
:1003EC00FFF7F4FE013EB6B2824616B110EA0B0FCF
:1003FC00F4D080220D212046FFF796FFB6B30621DC
:10040C002046FFF7E3FE10F01B0F2FD105F001057E
:10041C000C2F0AEA05062AD10A212046FFF7D6FE40
:10042C00394605462046FFF7D1FE10F007001BBFEA
:10043C0005F1FF3300EBC300EB00A9F8000008BF87
:10044C00A9F800301DB1112D28BF102500E00125A1
:10045C000A9FADB20A9BFB1A9BB29D4207D9092198
:10046C002046FFF7B3FE07F8010BF3E702263046F0
:10047C00BDE8F88F7FB5144605460E4607220D21C0
:10048C00FFF73AFE0DF10E03019326700094012341
:10049C0022460C212846FFF756FF28B9BDF80E302E
:1004AC00102B18BF022000E0022004B070BD1FB555
:1004BC0026216A46FFF7DEFFB0FA80F0400905B04E
:1004CC005DF804FB30B50C46054685B000220D21C5
:1004DC00FFF712FE93232370202363700DF10E039C
:1004EC0001930094022322460C212846FFF72BFF90
:1004FC0060B9631EE21C13F8011F48409342C0B25E
:10050C00F9D12379834214BF0220002005B030BDFD
:10051C001FB569460446FFF7D5FF034600989DF8C2
:10052C0004202060B3FA83F04009227104B010BD9E
:10053C0008B500F0C9F8014B186008BD6C0000202C
:10054C0010B52A4988B000F0BAFC00284BD0012124
:10055C000520274C00F061FF00F0CCFD254900F090
:10056C00D0FB2046FFF7A3FF78B30021052000F055
:10057C0054FF00F0BFFD204900F0C3FB2046FFF7FD
:10058C00C7FF00F0B7FD1D4900F0BBFB00F0B2FD4A
:10059C001B4900F0B6FBE27823780292A278102176
:1005AC000192627817480092174A00F01BFA00F08B
:1005BC00A1FD144900F092FB00F09CFD00F095FBAE
:1005CC000121042000F029FF0DE04FF47A7000F0B7
:1005DC0011FA064904A800F045FC04A8FFF7B0FF87
:1005EC0004A800F0F8FB08B010BD00BF25190A08DC
:1005FC008000002078180A0888180A0896180A083B
:10060C00A1180A0870000020B0180A0808B50121CA
:10061C00042000F0F1FE0121052000F0EDFE00F0B9
:10062C0069FD4FF4165100F04BFD0848FFF750FEE2
:10063C00002304220649074800F054F9BDE808409D
:10064C00054A0649064800F0F7B900BF80000020B3
:10065C0070000020C4180A08CB180A084D050A08B7
:10066C00190A0A087047000007B500F02DF80E2291
:10067C000D238DE80C000C210F2302220248FFF7FA
:10068C0010FD03B05DF804FB8000002000F01CB8E6
:10069C0000F01AB800F018B808B5024B1B681B6BB9
:1006AC00019308BDD001060808B5024B1B685B68B6
:1006BC00019308BD9C01060808B5024B1B685B69D9
:1006CC00019308BD9C01060808B5024B1B681B680A
:1006DC00019308BDB001060808B5024B1B689B6866
:1006EC00019308BDB001060808B5024B1B68DB6816
:1006FC00019308BDB001060808B5024B1B681B69C5
:10070C00019308BDB001060808B5024B1B681B6EAF
:10071C00019308BDAC01060808B5024B1B685B6E63
:10072C00019308BDAC01060808B5024B1B689B6E13
:10073C00019308BDAC01060808B5024B1B68DB6EC3
:10074C00019308BDAC01060808B5024B1B681B6F72
:10075C00019308BDAC01060808B5024B1B685B6F22
:10076C00019308BDAC01060808B5034B1B68D3F810
:10077C008030019308BD0000AC01060808B5024B9F
:10078C001B68DB69019308BDB401060808B5024B70
:10079C001B681B6A019308BDB401060808B5024B1F
:1007AC001B689B69019308BDC401060808B5024B80
:1007BC001B685B6A019308BDC401060808B5024BAF
:1007CC001B689B6A019308BDC401060808B5024B5F
:1007DC001B68DB6A019308BDC401060808B5024B0F
:1007EC001B681B6B019308BDC401060808B5024BBE
:1007FC001B685B6B019308BDC401060808B5024B6E
:10080C001B689B6B019308BDC401060808B5024B1D
:10081C001B681B6C019308BDC401060808B5024B8C
:10082C001B681B68019308BDD801060808B5024B6C
:10083C001B685B68019308BDD801060808B5024B1C
:10084C001B681B69019308BDD801060808B5024B4B
:10085C001B685B69019308BDD801060808B5024BFB
:10086C001B689B69019308BDD801060808B5024BAB
:10087C001B68DB69019308BDD801060808B5024B5B
:10088C001B681B6A019308BDD801060808B5024B0A
:10089C001B689B6C019308BDC001060808B5024B90
:1008AC001B685B68019308BDA401060808B5024BE0
:1008BC001B685B69019308BDA401060808B5034BCE
:1008CC001B68D3F89030019308BD0000A401060802
:1008DC0008B5034B1B68D3F89C30019308BD00008E
:1008EC00A401060808B5024B1B681B68019308BDE0
:1008FC00CC01060808B5024B1B685B68019308BD68
:10090C00CC01060808B5024B1B68DB6B019308BDD4
:10091C00CC01060808B5024B1B685B68019308BD47
:10092C00C801060808B5024B1B689B68019308BDFB
:10093C00C801060808B5024B1B68DB68019308BDAB
:10094C00C801060808B5024B1B681B69019308BD5A
:10095C00C801060808B5024B1B685B69019308BD0A
:10096C00C801060808B5024B1B689B69019308BDBA
:10097C00C801060808B5024B1B68DB69019308BD6A
:10098C00C801060808B5024B1B681B6A019308BD19
:10099C00C801060808B5024B1B681B6B019308BD08
:1009AC00C801060808B5024B1B685B6B019308BDB8
:1009BC00C801060808B5024B1B681B68019308BDEB
:1009CC00A001060808B5024B1B685B68019308BDC3
:1009DC00A001060808B5024B1B689B68019308BD73
:1009EC00A001060808B5024B1B68DB69019308BD22
:1009FC00A00106080021FFF759BF10B58368044613
:100A0C0013B1032201469847204610BD10B588B09B
:100A1C000446684600F026FA694604A800F044FA39
:100A2C0004A8A047044604A800F0D5F9684600F0D5
:100A3C00D2F9204608B010BDF0B507460E46154653
:100A4C0085B0102422460021684600F0C2FE002228
:100A5C0069461046ADF80040029703960195FFF7E2
:100A6C0049FF05B0F0BD7047F8B5064615460C4673
:100A7C008F18BC4206D0336814F8011B9B683046B3
:100A8C009847F6E72846F8BD0022007CFFF73CBEED
:100A9C000021007CFFF740BE0021007CFFF744BE24
:100AAC000021007CFFF748BE0021007CFFF74CBE04
:100ABC0010B50446142100F028FD204610BD00009E
:100ACC0010B5044608464FF47A73A360044B00211A
:100ADC00207461602360FFF747FE204610BD00BF05
:100AEC00DC180A080021007CFFF736BE704710B5F1
:100AFC000446182100F009FD204610BDF8B50F463C
:100B0C0000F10806051D002416F8011D0A223846BE
:100B1C0000F02BF9AE42044407D0002CF4D02E2167
:100B2C00384600F0DFF80444EEE72046F8BD00003C
:100B3C0010B50446044B112240F8043B002100F090
:100B4C0048FE204610BD00BF04190A080346074A98
:100B5C0010B543F8042B01F1100251F8044B9142EB
:100B6C0043F8044BF9D10A781A7010BD04190A081D
:100B7C00024A4160026004220275704704190A0897
:100B8C0010B59DF8084044EA032343EA024242EAC6
:100B9C00016104234160037510BD000037B5044D9D
:100BAC0005609DF818500095FFF7EAFF03B030BDC3
:100BBC0004190A08014A024B1A60704786190A0880
:100BCC009000002000231A464068FFF7A3BE0022C5
:100BDC0002214068FFF7AEBE002211464068FFF7C5
:100BEC00A1BE002211464068FFF7ACBE00231A4696
:100BFC0019464068FFF7AEBE00231A4619464068F6
:100C0C00FFF7B0BE002281F001014068FFF7B2BED1
:100C1C0000224068FFF7BEBE002211464068FFF775
:100C2C00C1BE002211464068FFF7ACBE70B5164637
:100C3C008EB0044608A8FFF77BFF1122002103A801
:100C4C0000F0C7FD304600F0FFFD00250A4B009573
:100C5C0081B25B6803AA3046FFF718FE20B1294623
:100C6C002046FFF785FF03E003A92046FFF76EFF40
:100C7C0020460EB070BD00BF14050020024B034A85
:100C8C001A6000225A60704794000020FC190A0870
:100C9C00F8B506460D468F180024BD420CD03368BB
:100CAC0015F8011B9B6830469847002801DB04446B
:100CBC00F3E7002C08BF04462046F8BD70B5054686
:100CCC000C46084649B100F0BFFD2B680246214690
:100CDC002846BDE87040DB68184770BD08B5FFF7C3
:100CEC00EDFF08BD03689B68184738B50D21054614
:100CFC00FFF7F8FF0A2104462846FFF7F3FF2044CC
:100D0C0038BD38B50546FFF7D9FF04462846FFF72E
:100D1C00ECFF204438BD012A98BF0A2230B50B469F
:100D2C008BB000218DF824100DF12304B3FBF2F5E8
:100D3C0005FB1233DBB2092B94BF30333733DBB2F4
:100D4C00214604F801392B46002DEFD1FFF7B6FFF1
:100D5C000BB030BD10B422B90368C9B29B6810BC8B
:100D6C001847D2B210BCFFF7D6BFFFF7F3BF10B5D0
:100D7C000446FFF742FE204610BD00000348002346
:100D8C008360034A034900F0BBBB00BF9C000020FA
:100D9C00680000207B0D0A08704710B5044610212E
:100DAC0000F0B3FB204610BD70B504460E46074B51
:100DBC000025036040F80C5FFFF76EFC304626718F
:100DCC00FFF7DCFCA560204670BD00BF301A0A0896
:100DDC000079FFF7DBBC10B504460068FFF7F2FDA5
:100DEC00204610BD10B50446006808B1FFF7EAFDB7
:100DFC0000232360A360636010BD38B504460D4624
:100E0C0000680131FFF7E6FD10B184E821000120F4
:100E1C0038BD10B50368044613B143688B4207D242
:100E2C002046FFF7EAFF20B1A3680BB922681370C4
:100E3C00012010BD70B50E46114604461546FFF74D
:100E4C00E8FF18B92046FFF7CDFF09E02A463146E6
:100E5C00A560206800F0B2FC2268A3680021D15480
:100E6C00204670BD38B500230446036043608360A0
:100E7C0003730D4639B1084600F0E6FC29460246DC
:100E8C002046FFF7D7FF204638BD884210B50B46E9
:100E9C00044607D0096819B19A68FFF7CBFF01E047
:100EAC00FFF7A0FF204610BD10B5044600230360D9
:100EBC00436083600373FFF7E8FF204610BD08B55D
:100ECC0082680B4612B919B9012008BD11B9036823
:100EDC00187802E0006800F0ADFCB0FA80F0400930
:100EEC0008BD00004FF6FF72034B002018705880AD
:100EFC009A80FFF7D3BC00BFAC000020024B1A68ED
:100F0C00024B1A60704700BF00000020B4000020A4
:100F1C0070474174704708B5007CFFF777FC20EAF6
:100F2C00E07008BD08B5007CFFF748FC20EAE070D3
:100F3C0008BD08B5007CFFF751FC30EA200028BF43
:100F4C004FF0FF3008BD08B5007CFFF73FFC30EADE
:100F5C00200028BF4FF0FF3008BD007CFFF746BCD7
:100F6C0010B50446142100F0D0FA204610BD70B51F
:100F7C00457C04460E4625B9007CFFF747FC00284B
:100F8C0005DD3146207CBDE87040FFF70FBC2846DC
:100F9C0070BD000010B50446084611460022626080
:100FAC004FF47A72A260054A2074226001226274A6
:100FBC001A46FFF7F3FB204610BD00BF6C1A0A0857
:100FCC00007CFFF71BBC000038B50C4D296811F0F4
:100FDC00010411D12846FFF75CF868B1084A214694
:100FEC00084B0948FFF7D6FF2846FFF757F8074A82
:100FFC000749054800F084FA034838BD5001002029
:10100C0054010020CC000020B80000206800002013
:10101C001D0F0A0841747047704708B50021007C09
:10102C00FFF71CFC30EA200028BF4FF0FF3008BD52
:10103C0008B50121007CFFF711FC30EA200028BF25
:10104C004FF0FF3008BD08B5007CFFF7FFFB20EA2E
:10105C00E07008BD08B5007CFFF7F0FB20EAE070FB
:10106C0008BD007CFFF70ABC10B50446142100F043
:10107C004CFA204610BD38B50446007C0D46FFF7EF
:10108C00E5FB002801DC607C28B12946207CFFF7B9
:10109C00EDFB20EAE07038BD10B504460023636018
:1010AC004FF47A73A360054B084623600123217427
:1010BC0063741146FFF7B2FB204610BD9C1A0A0858
:1010CC000022007CFFF7B2BB10B5044614220021AD
:1010DC0000F07FFB054B20466360054BE36040F25C
:1010EC00011323818123238210BD00BF5D020020E8
:1010FC00DC01002030B50E4D87B001A8FFF7E4FFEE
:10110C00296811F0010410D12846FEF7C2FF60B126
:10111C0001AA21460748FFF7BFFF2846FEF7BEFF8E
:10112C00054A0649034800F0EBF9024807B030BD08
:10113C00D8010020600300206800002025100A0858
:10114C0010B504461422002100F043FB054B204649
:10115C006360054BE36040F20113238181232382FA
:10116C0010BD00BF100400207803002010B50E4CF9
:10117C0086B001A8FFF7E4FF2368DB0710D42046F4
:10118C00FEF787FF60B101AA01210848FFF784FF31
:10119C002046FEF783FF064A0649044800F0B0F9E2
:1011AC00024806B010BD00BF74030020FC030020F1
:1011BC006800002025100A08002211464068FFF73D
:1011CC00C1BBF0B5164689B011220F46044600216A
:1011DC0003A800F0FEFA304600F036FB002500951F
:1011EC0081B27B6803AA3046FFF750FB20B1294639
:1011FC002046FFF7BDFC03E003A92046FFF7A6FC41
:10120C00204609B0F0BD002211464068FFF7BABB7A
:10121C00002211464068FFF7C5BB00224068FFF76B
:10122C00B9BB002281F001014068FFF7A3BB00238A
:10123C001A4619464068FFF795BB00231A46194613
:10124C004068FFF787BB002211464068FFF76ABB76
:10125C00002202214068FFF76DBB00231A4640684C
:10126C00FFF758BB024B04225A60024A1A607047BF
:10127C0014050020CC1A0A0808B5144B33B1FFF73B
:10128C0039FF03681B699847002816DC104B33B1F3
:10129C00FFF79AFE03681B699847002810DC0D4B7A
:1012AC000BB1AFF300800C4B7BB1FFF75FFF036812
:1012BC001B699847002806DC08BDAFF30080E5E702
:1012CC00AFF30080EBE7AFF3008008BD0000000037
:1012DC0000000000000000000000000008B5FFF74F
:1012EC00CBFFFFF7E9F9014B186008BD240500207E
:1012FC000248034A0349121A00F060BA0040024047
:10130C0004400240A01B0A0807B5002300931A46AC
:10131C006FF07701FFF7DCFA03B05DF804FB000017
:10132C0007B543880A2B08D0502B09D1094B1B68F1
:10133C003BB103B05DF804EB1847FFF7E5FF06E09F
:10134C00002300931A466FF07701FFF7C1FA03B040
:10135C005DF804FB1C05002038B5104C104D2368BB
:10136C00AB42104B0CBF012200221A7002D0FFF7C7
:10137C00BFFF2560FFF798F9044600F033FA0A4BDB
:10138C0013B12046AFF3008000210748FFF7BAFAEB
:10139C00BDE8384000210548FFF790BA00400240F4
:1013AC001E1C279A20050020000000002D130A089F
:1013BC0010B504460F48FFF70BFD28B1A4F10D033F
:1013CC00022B01D8002010BD00F040F8FFF78AFB7B
:1013DC0008B1012CF6D9FFF7F7FDFFF7F1FD18B1B5
:1013EC00A4F11203012BEDD9172C8CBF0020012086
:1013FC0010BD00BF58050020172838B504460D460F
:10140C000AD8FF2908D0FFF7D3FF28B12946204678
:10141C00BDE83840FFF760B938BD38B504460D4615
:10142C00FFF762F9FF2810D0062804D84D2323FAC1
:10143C0000F0C30709D42046FFF7BAFF28B12946AC
:10144C002046BDE83840FFF757B938BD38B50B4DCD
:10145C00296811F001040FD12846FEF71AFE58B185
:10146C0021460748FFF72CFB2846FEF717FE054AD6
:10147C000549034800F044F8014838BD2805002010
:10148C002C05002068000020730A0A0813B5084CCC
:10149C0000231A46194600932046FFF77FFB20468F
:1014AC00044A054902B0BDE8104000F029B800BF5D
:1014BC004005002068000020F90A0A0870B50C4CA1
:1014CC000C4E0D4D00212046FFF76EFC20460B4CB8
:1014DC003246294600F014F801212046FFF764FC3F
:1014EC00324629462046BDE8704000F009B800BFDE
:1014FC005805002068000020A50D0A08680500208A
:10150C000B460146184600F04BB9FEF7C0BD000073
:10151C00244B1A68D0075CBF01221A60224B1A6850
:10152C00D1075CBF01221A60204B1A68D2075CBF3E
:10153C0001221A601E4B1A68D0075CBF01221A6088
:10154C001C4B1A68D1075CBF01221A601A4B1A682F
:10155C00D2075CBF01221A60184B1A68D0075CBF17
:10156C0001221A60164B1A68D1075CBF01221A605F
:10157C00144B1A68D2075CBF01221A60124B1A680E
:10158C00D0075CBF01221A60104B1A68D1075CBFF0
:10159C0001221A600E4B1A68D2075CBF01221A6036
:1015AC00704700BFA4050020A00500209C0500206A
:1015BC009805002094050020900500208C05002043
:1015CC008805002084050020800500207C05002073
:1015DC0078050020184B1A68D1075CBF01221A60ED
:1015EC00164B1A68D2075CBF01221A60144B1A689A
:1015FC00D0075CBF01221A60124B1A68D1075CBF7E
:10160C0001221A60104B1A68D2075CBF01221A60C3
:10161C000E4B1A68D0075CBF01221A600C4B1A687B
:10162C00D1075CBF01221A600A4B1A68D2075CBF53
:10163C0001221A60704700BFC4050020C0050020BD
:10164C00BC050020B8050020B4050020B005002022
:10165C00AC050020A8050020184B1A68D1075CBF08
:10166C0001221A60164B1A68D2075CBF01221A605D
:10167C00144B1A68D0075CBF01221A60124B1A680F
:10168C00D1075CBF01221A60104B1A68D2075CBFED
:10169C0001221A600E4B1A68D0075CBF01221A6037
:1016AC000C4B1A68D1075CBF01221A600A4B1A68EE
:1016BC00D2075CBF01221A60704700BFE40500200E
:1016CC00E0050020DC050020D8050020D405002012
:1016DC00D0050020CC050020C8050020244B1A683A
:1016EC00D0075CBF01221A60224B1A68D1075CBF7D
:1016FC0001221A60204B1A68D2075CBF01221A60C3
:10170C001E4B1A68D0075CBF01221A601C4B1A686A
:10171C00D1075CBF01221A601A4B1A68D2075CBF52
:10172C0001221A60184B1A68D0075CBF01221A609C
:10173C00164B1A68D1075CBF01221A60144B1A6849
:10174C00D2075CBF01221A60124B1A68D0075CBF2B
:10175C0001221A60104B1A68D1075CBF01221A6073
:10176C000E4B1A68D2075CBF01221A60704700BF8B
:10177C0014060020100600200C060020080600208D
:10178C000406002000060020FC050020F8050020BF
:10179C00F4050020F0050020EC050020E8050020F1
:1017AC0010B5054C13462CB10A4601460220AFF386
:1017BC00008010BD204610BD0000000010B5431E77
:1017CC000A44914204D011F8014B03F8014FF8E799
:1017DC0010BD03460244934202D003F8011BFAE702
:1017EC007047000038B5124B05461C68A36BD3B983
:1017FC001820FFF7DFF843F20E33A06303804AF69C
:10180C00CD33438041F2342383804EF26D63C38029
:10181C004DF6EC630381052343810B238381012265
:10182C000023C0E90423A36B00221D615A6138BD5B
:10183C006400002010F8012B11F8013B012A28BF8D
:10184C009A42F7D0D01A7047034613F8012B002A9E
:10185C00FBD1181A013870471D000A085D000A08F0
:10186C0089000A088D000A08000000005455524EE9
:10187C00494E4720524544204F4E3A00454E544560
:10188C00524544204C4F4F503A0047524545454E27
:10189C00204F4E3A00436172642064657465637432
:1018AC0065643A00253032582D253032582D2530BC
:1018BC0032582D25303258006361726449440073EC
:1018CC0063616E4361726400000000000000000060
:1018DC00730A0A08BD0A0A08950A0A08750A0A0852
:1018EC009D0A0A08A50A0A08AD0A0A08B50A0A08D8
:1018FC000000000000000000090B0A08F90A0A08A1
:10190C00FB0A0A08626175640053657269616C00B8
:10191C0055534253657269616C310074797065007E
:10192C00706172616D00636D6400696400686E645F
:10193C00007374726D0066696C74006C766C006177
:10194C00646448616E646C65720072656D6F766577
:10195C0048616E646C657200656E756D48616E648D
:10196C006C657273004A534F4E53747265616D4CC3
:10197C006F6748616E646C65720061707000253031
:10198C0031307520005D20002564002C20002829B2
:10199C003A2000205B00636F6465203D20002569C0
:1019AC000064657461696C73203D20000D0A00664B
:1019BC00006C6E00666E00636F6465006465746134
:1019CC00696C006E6F6E6500747261636500696EA0
:1019DC00666F007761726E006572726F7200706173
:1019EC006E696300616C6C00000000000000000078
:1019FC00D10B0A08DB0B0A08E50B0A08EF0B0A08E7
:101A0C00F90B0A08050C0A08110C0A081D0C0A0827
:101A1C00250C0A082F0C0A08390C0A0800000000D3
:101A2C0000000000A50D0A08A70D0A085A00252B76
:101A3C003033643A253032750025592D256D2D250E
:101A4C00645425483A254D3A2553257A0061736331
:101A5C0074696D65000000000000000000000000CB
:101A6C001D0F0A086D0F0A087B0F0A089D0C0A0847
:101A7C00310F0A08530F0A083F0F0A08670F0A08AC
:101A8C001F0F0A08230F0A080000000000000000C6
:101A9C0025100A0875100A0883100A089D0C0A08FC
:101AAC0061100A0827100A083D100A086F100A086E
:101ABC0053100A0821100A08000000000000000062
:101ACC0067120A085D120A0853120A08C5110A089F
:101ADC0047120A083B120A082F120A0827120A0892
:101AEC001D120A0813120A08CF110A080000000080
:101AFC0000000000000000000000000000000000DA
:101B0C0000000000000000000000000000000000C9
:101B1C0000000000000000000000000000000000B9
:101B2C0000000000000000000000000000000000A9
:101B3C000000000000000000000000000000000099
:101B4C000000000000000000000000004300000046
:101B5C003D050A0875060A0899060A089D060A0832
:101B6C00A1060A08C10B0A08890C0A08890D0A0883
:101B7C00F10E0A08090F0A0871120A0899140A08CA
:101B8C00C9140A081D150A08E1150A0865160A0881
:041B9C00E9160A0834
:041BA0000000000041
:101BA400591A0A0800000000F81A0A08181B0A0843
:101BB400381B0A08000000000000000000000000BC
:101BC40000000000581B0A0800000000000000008C
:101BD4000000000000000000000000000000000001
:101BE40000000000000000000000000000000000F1
:101BF40000000000000000000000000000000000E1
:081C04000000000004000020B4
:101C0C00FFFFFFFF00000102030405060708090A95
:101C1C000B0C0D0E0F101112131415161718191A90
:081C2C001B1C1D1E1F202800D7
:041C34007856341298
:04000005080A001CC9
:00000001FF
